:400000000040002011000000610100006101000008B5044B04481A68026000F079FC00F0A1F800BFFA460040BC76004010B5054C237833B9044810B10448AFF30080012176
:40004000217010BD28C1FF1F000000000420000008B5064B1BB106480649AFF300800648016811B1054A02B1904708BD00000000042000002CC1FF1F08C1FF1F0000000031
:4000800008B5364B1A7802F0FE00187093F8221001F0FE0283F822200733187800F0FE01197013F8012C02F0FE0003F8010C13F8021C01F0FE0203F8022C13F8040C00F0CD
:4000C000FE0103F8041C13F8062C02F0FE0003F8060C13F8031C01F0FE0203F8032C13F8050C00F0FE0103F8051C93F82C2002F0FE0083F82C002B33197801F0FE021A7068
:4001000013F8010C00F0FE0103F8011C13F8022C02F0FE0003F8020C13F80B1C01F0FE0203F80B2C13F80C0C00F0FE0103F80C1C13F80D2C02F0FE0003F80D0C13F80E1C67
:4001400001F0FE0203F80E2C13F80F0C00F0FE0103F80F1C00F09CFBFEE700BF00500040FEE7000008B51249124B4A1C1AD053F8106C53F80C0C53F8085C0022AA4200EBE7
:40018000020403D0B45884500432F7E753F8040C0022824203D00025A5500432F9E701391033E2E701F0F2FEFFF76AFFFEE700BF000000005022000008B5104A104B1A60A6
:4001C000986840F400729A600023032B96BF0D4A0D4952F823100D4A42F823100133302BF3D10B490B4B08780B4918700A6000F017F80A480022026008BD00BF0004FA05AC
:400200000CED00E0000000006101000000C0FF1FBC76004004C1FF1F08ED00E000C1FF1FF8B572B65E4B0122A3F5A061A1F58075062052245B4E1A7008702C7037785A4BA0
:400240005A4A40F6180041F25121177019251880002423F8021C564E4FF4F070377807F0010242EA440400F06BFB013D04F0030417D0032CEFD14F484F4F00264FF48073D3
:400280004E4D072148220224038001703E70BA700670467100F8034C287840F004032B7000E0FEE7464F062101FB0672002110680136928801F099FE082EF3D10023194656
:4002C000404C002218593034C6B220F0FF0704EB4104D5B2AE4209D004EB420C14F812509CF801E0013205F807E0F2E70433C0B2302B0144E4D1344C227842F0020020707D
:40030000217C324841F00203314923740C7844F040020A7003782F4A43F010042E4B047018685C68106054601A462C4852F8084F046054681289446002811A4652F8124FF9
:40034000526840F8BE4C40F8BA2C1A4652F81A4F526840F8AE4C40F8AA2C53F8220F204A5B6810601F485360027842F0080303701D481E4A037803F007001B091070537050
:400380001B4A442010701B4A0B460C3153F8040B8B4242F8040BF9D119881180F8BD00BF004800400F01004922420040A1460040254200400440004006400040E846004056
:4003C000082000003820000003500140C2430040A04300400251004096200000F05100406251004022430040CF0100496E58004076580040B043004000470000431E10B552
:400400000246062B0DD8DFE803F0060E2304080A2100164808E0164B1BE0164804E0164802E0002000E015484178007841EA0020022A04D0032A07D0012A15D104E002023C
:4004400042EA102398B210BD00BA10BD0C4B00E00C4BD8789C7859781B7840EA036040EA042343EA0140E3E710BD00BFD2FF0100C1FF0100D6FF0100D4FF0100C5FF010085
:40048000D8FF0100C9FF010070B50220FFF7B6FF06460320FFF7B2FF711C00EB01260220FFF7ACFF0024013001022546B14209D211F8010B421ED3B20419FD2B98BF0125E4
:4004C000E4B2F3E70220FFF799FF0F49421C1302DB088E4201D0F60801E04FF48046B34206D203F19041087801330219D4B2F6E7054864420278E4B2944201D0062070BDE4
:40050000002DFBD0002070BDC0FF01002DE9F04FADF5617D804600F0E3FB62B60026B2464FF00A093746B8F1000F01D1FF2300E043464AA84FF4967101AA00F00BFCB8F1AC
:40054000000F03D009F1FF395FFA89F9B9F1000F02D00028E7D101E0002871D1BDF80420062A40F27B819DF82831012B40F076819DF82A019DF82B514AA940EA0525EC1D3D
:400580004B1994425879197900F266819A79172A40F064812B1D9BB200223BB10DF22714E45C013B121992B29BB2F6E7524241EA002091B2884240F053814AE0002E00F032
:4005C0004D81012D4FF0000440F03C81BBF1010F00F23881FF238DF82C418DF82D4125468DF82E318DF82F61042401200022211DADF806408DF828018DF829518DF82A41CC
:400600008DF82B218BB20DF22710C15C013B52189BB292B2002BF6D1504281B2080A4BAA0DF22D131155185517210DF59772E31D11554AA899B20DF10602962300F060FB62
:40064000B8F1000F3FF472AF002E00F01281012669E79DF829219DF82CB1A2F131030A2B00F2F78001A151F823F000BF99060000BD05000053080000B706000069070000EA
:40068000530800006F0700008D070000B7060000A707000033080000002E00F0DF80002D40F0DC80FFF7F0FED0F1010238BF00228DF82C21BBE0342A12D1002E00F0CE801E
:4006C000032D40F0CB80ABF140073F2F8CBF4FF49077102795A800213A4601F086FC05E0002E00F0BB80022D40F2B880033D95AB2A46D8190DF22F1101F06EFCABF14000B3
:400700007A193F2896B203D800F0D2F9102401E04FF49074A64240F097809DF82E119DF82D71BBF13F0F47EA012511D8BAF1000F0ED151464FF4907202A801F056FC012092
:40074000FF2102AA4FF4907300F062F94FF0010A33465846294695AA00F05AF90126002875D000270A2575E0002E77D07AE0002E74D07C19B4F5967F6ED895A9C8192A4622
:400780004BA901F029FCA7B2002563E0002D65D13A4802AE4BAC03C886E8030084E803000126082421E7002E58D0032D56D19DF82E019DF82D11ABF140023F2A41EA002501
:4007C0000AD82D01002310222D4811184C5D013A2344DBB2F8D126E005EB0B231C024FF480720023013A105D1918CBB2002AF9D1BBF13F0F17D80BF5103405EB04204101EE
:40080000545C01321B19202ADBB2F9D1BBF1010F09D1FF2D07D11B4D1B4C2878191A2378CA1A02F0FF035D428DF82C5100250124DBE6FFF729FE10B9144D80242C7000F02E
:4008400045F90BE00425D0E60126002704E007469AE705250024C8E60325FBE70425F9E70825F7E7B8F1000F01D147465EE60027EDE60DF5617DBDE8F08F00BFC02000005E
:40088000FF7F0040D0FF0100D1FF0100FA46004010B5C8B000F092F810B1002000F014F9684600F09FF810B1002000F00DF916480368196800230A4622B112F8014DE318D5
:4008C000DBB2F9E742681078C41A04F0FF03834200D111B9002000F0F7F80C4CFFF7D4FD217801F0C002402A00D018B100202070FFF70CFE1420FFF709FE8020207000F0B7
:40090000E5F848B010BD00BF0CC1FF1FFA46004008B50A4B1A7802F0C00080280CD1002119700120FFF76AFD30B10120FFF766FDBDE80840FFF760BD08BD00BFFA46004089
:400940000230800800F0058000BF013800467FF4FCAF7047EFF3108072B6704780F31088704700BFAFF30080012010B500F060F9072809D04FF0FF3417E00E4B187800F0C8
:400980000201CAB2002AF5D102210B4800F0ECF80228F2D1074C237803F00200C1B219B9012000F0AFF8F5E7002400F07FF9204610BD00BF2247004057C1FF1F08B500F0CB
:4009C000C1F800F053F958B9FFF7CEFF48B900F0B9F800F04BF918B9BDE80840FFF7C4BF042008BD38B5044600F0ACF84CB100F03DF9054638B9054B1C6000F057F9284694
:400A000038BD012038BD042038BD00BF44C1FF1FF8B505460E4617461C4600F027F9F0B922462846394600F0B9F80728044613D11D4B1A7802F00200C1B219B9012000F055
:400A400061F8F5E71C7804F00202D0B210B11B789B0806D04FF0FF3400F028F922E0042420E0124C284622786378314600F0BCF807280446F0D10C490A7802F00200C3B2E3
:400A80001BB9012000F03EF8F5E70C7804F00202D0B20028DED009788B0814BF4FF0FF340024D9E72046F8BD2247004057C1FF1F044B1A7842F010001870197C41F01002B1
:400AC0001A747047AC43004001BE7047024B1A7842F0010018707047F646004010B50446B4F5004F064B05D91868FFF729FFA4F50044F5E758686043BDE81040FFF720BF85
:400B000014C1FF1F024B197A4843FFF719BF00BF14C1FF1F054B00F01F001B6800F1100253F8220043F82210704700BF08ED00E000F01F0000F16043490103F56442C8B2C8
:400B40001070704708B5FFF705FF064B1A7842F0080119701A7C42F008011974BDE80840FFF7FCBEA043004070B506460D460024E3B2AB420CD207480178CB0703D40120E8
:400B8000FFF7C0FFF7E7044A137833550134EFE7284670BD224700402047004030B5104B1C7804F00204E4B2ACB10E4CB6252570D5252570022525701B782B40DBB263B9CE
:400BC000207098B2904204D2CC5C064801330470F7E7072030BD042030BD092030BD00BF224700402047004070B50F4D2C7804F00204E4B2A4B10D4CB6262670D8262670C4
:400C0000052626702D7805F00205EDB255B92070080AC9B22070217007202270237070BD042070BD092070BD22470040204700400C4A137803F00201CBB273B10A4BB62153
:400C40001970E12119700E211970127802F00201CAB222B9187007207047042070470920704700BF224700402047004038B5FFF771FE0C4B197879B901250B4A1D701468B2
:400C80002C400AD0146824F00104146000BF00BF00BF5D600C4600E00424FFF75FFE204638BD00BF48C1FF1F0400084010B5FFF751FE094B002259681A70012908D1074993
:400CC0000C6844F001040C6000BF00BF00BF5A60BDE81040FFF742BE48C1FF1F0400084008B562B60020022100F062F9014B01221A7008BD50C1FF1F012000F003BA000068
:400D0000F8B507460E4602201546394640221C4600F0BAF90A235C430D4844800024022000F094F950B90A49671C4A88BFB2A24204D90120FFF7D2FE3C46F0E7022000F025
:400D400085F910B12E800020F8BD1020F8BD00BF50C1FF1F2DE9F04115460A225343284C8046638024780F46D4B1002400F05EF958B9234B661C5888B6B2A04204D9012053
:400D8000FFF7ACFE3446F1E7344600F04FF9E0B100F052F9FFF7B0FF194A0021117014E000F04AF908B900240FE000F03FF90028F9D0FFF7A1FF08E0114B661C5988B6B260
:400DC000A14209D9FFF78AFE3446012000F03EF901284FF00100EFD100F038F901280AD14146402F34BF3A46402200F09FF928800020BDE8F081002028801020BDE8F08161
:400E000050C1FF1FF8B5FFF7A5FD384B07461A78012542F001001870197C022641F001041C74334B334C1D7003F8946C13F88D2C02F07F0003F88D0C0020FFF763FE21781A
:400E40002D4801F0F9032370027802F0DF010170237828462B432370FFF754FE2820FFF751FE2648027802F07F010170037803F0BF0202702078304320703046FFF742FE2E
:400E800021781F4A41F0040323700024147038465470FFF763FD17201A49FFF73BFE17200721FFF745FE15201749FFF733FE15200721FFF73DFE18201449FFF72BFE18208E
:400EC0000721FFF735FE20461149FFF723FE20460721FFF72DFE28460E49FFF71BFE28460721BDE8F840FFF723BE00BFA54300409D6000409443004012600040F851004087
:400F00008460004003160000011600004114000099150000CD150000184B012210B51A70174B4FF400041C604FF080741C601A6002221A60134B00241C70134B01B1032274
:400F400012491A70124B0870124A002012491870124B10700870124A12491870124B10700870802203201870012003F8202CFFF7E7FC0E480421017010BD00BFECC1FF1F9E
:400F800000E100E072C1FF1F096000406CC1FF1F71C1FF1F6DC1FF1F70C1FF1F5CC1FF1F6FC1FF1FE5C1FF1F286000401260004070B5074C064623780D461BB9FFF722FFDC
:400FC0000120207030462946BDE87040FFF7A4BF54C1FF1F0C4B01220C491A7000200C4A0C4B08700C49107018700C4A0C4B08700C49107018700C4B0870802203201870E1
:4010000003F8202C704700BFECC1FF1F72C1FF1F71C1FF1F6DC1FF1F70C1FF1F5CC1FF1F6FC1FF1FE5C1FF1F28600040014B1878704700BF71C1FF1F034B187810B1002274
:4010400018781A70704700BF70C1FF1F024B0C2202FB00304078704778C1FF1F0138C3B2072B0CD81901074ACBB2985C511C5B5C00F00F0243EA0220811E88B2704700205F
:40108000704700BF0C600040431EDBB2072BF0B52FD8184E1C010C27E3B207FB0064E788154DBFB2C7F50077BA421D4403D9E288C2F50074A2B20C2404FB0066F47844EACB
:4010C00012260E4C1E55D6B201341E5549B9094A0C2101FB0020002141704079084A9854F0BD0024A6B29642F1D20E5D01342E70F8E7F0BD78C1FF1F886000400C6000409B
:401100000E600040431EDBB2072B0AD8054A0C2101FB0020002141701B014079024ADBB29854704778C1FF1F0E600040F8B5431E0D46D9B207290746144616D8BDB10A0115
:401140000C4ED3B29E19FFF789FFA04228BF204684B2002290B2A04203D23178A9540132F8E73846FFF7CEFF02E0002400E02C462046F8BD886000401B4B1C491A8808785A
:40118000821891B219801A491A4BCAB2188880B278B1194A91420BD05A68107801F8010B5A68501C58601A88501E82B21A80EBE708220E490B78082B00D05AB10F480178A2
:4011C00081F080030E4903700F200E4B08700220187004E00A490B4B022008701870034909480A7002707047E8C1FF1FE5C1FF1F0060004060C1FF1F086000406EC1FF1F39
:401200005DC1FF1F72C1FF1FE6C1FF1F074B02221A700749074B80200F2208701A700649064A0020087010700120704772C1FF1F6EC1FF1F5DC1FF1FE5C1FF1FE6C1FF1FF5
:4012400010B5154B1A78154B02F00F00811E1888CAB2111888B212491880124B188880B270B16AB1586811F8014B013A04705868D2B2013058601888013880B21880ECE773
:4012800009490A4B0A701A780B2182F080001870074B197010BD00BF29600040E8C1FF1F0060004060C1FF1FE6C1FF1F6EC1FF1F5DC1FF1F064A0748062313700370064BA2
:4012C000064880210022197002700120704700BF72C1FF1F5DC1FF1F6EC1FF1FE6C1FF1F054B9A683AB19968044A087098681188418000209860704760C1FF1FE8C1FF1F79
:4013000008B50A4B1A7832B11978094A41F08000002110701970074B002018700120FFF7DFFF054903220A7008BD00BF5CC1FF1F0860004072C1FF1F5DC1FF1F08B5054B8A
:40134000002201201A70FFF7CBFF03490320087008BD00BF72C1FF1F5DC1FF1F074B1878042805D0062805D0022805D1FFF704BFFFF7E4BFFFF7C4BF704700BF72C1FF1F70
:4013800008B50849084B1A880878821891B21980064B002018700120FFF7A2FF044903220A7008BDE5C1FF1FE8C1FF1F72C1FF1F5DC1FF1F08B50B4B1878042807D00628E6
:4013C00009D002280DD1BDE80840FFF7D9BFBDE80840FFF735BF0320FFF782FF024903220A7008BD72C1FF1F5DC1FF1F08B5114B1A781A701878020602D50F4B187008BD99
:401400000220FFF76DFF0D490B7803F06002202A05D0402A06D042B900F04AFC04E000F08DFD01E000F07EFD10B903490320087008BD00BF286000405DC1FF1F00600040E8
:4014400008B5224B1A78D0B200F01001CBB2002B3BD052B2002A0ADA00F00F01012934D1FFF7C4FF1A4B187800060DD508BD00F04001CBB213B1FFF771FF05E000F0200011
:40148000C2B212B3FFF796FF104A117809061CD4104B114A1878117841EA00030F4803700278934211D10A49084B0A78187800F08000C0B220B90A781A70197801F00F027C
:4014C000034B18788242EED108BD08BD286000405DC1FF1F6EC1FF1FE6C1FF1F29600040054A00231380054A916819B191680B7090684380704700BFE8C1FF1F60C1FF1F60
:4015000008B50C490C4B042280201A700870FFF7E7FF0A4B1A78581E094B0178188841EA022281B2914288BF1A80064B0B221A70012008BD6EC1FF1F72C1FF1F076000406B
:4015400060C1FF1F5DC1FF1F10B50F4C238898B210B9FFF75BFE14E00C490D4B022200200A701870FFF7BCFF0A49481E0A78037843EA0221228890B2884288BF2180FFF791
:40158000FBFD012010BD00BF60C1FF1F72C1FF1F6EC1FF1F07600040094B0A481B78027B02F00301012903D0C37B83F08002C273012141730448037803F0FE020270704738
:4015C0000E60004078C1FF1F0B600040094B0A481B78027E02F00301012903D0C37E83F08002C276012141760448037803F0FD02027070471E60004078C1FF1F0B600040A6
:401600007047FFF7E7BC000008B50B4B1878411EC8B200F059F9094A0949137800EBC3004269CB5C02EBC3004268064B506A01781980586008BD00BF71C1FF1F0460004045
:401640005EC1FF1F60C1FF1F08B50D4B1878411EC8B200F039F90B4A0B49137800EBC3004269CB5C02EBC3004268D369074A597813F8020B40EA01211180536008BD00BFB6
:4016800071C1FF1F046000405EC1FF1F60C1FF1F10B5164C00231648238001784A1ED0B200F012F91349144B1B780A7800EBC2004169D2B9114A013B1078DAB201EBC00107
:4016C000022A496811D80E4A01EBC300127811F83310914209D30C235A4341688B1858688A5A996860602280A16010BD60C1FF1F71C1FF1F04600040036000405EC1FF1F98
:401700000260004010B53A4B3A4A18781178090634D5511C0B785A1E052A67D8DFE802F010182766660334480178212902D1FFF76BFF07E00378222B58D1FFF785FF01E0B6
:40174000FFF7A6FF2D490B8898B200284ED00AE000284BD12A4B1878002847D127480122284902804160BDE81040FFF7EDBE00283CD12248012202802349F3E713781A06D1
:4017800034D4224A1178092905D02FD30A290DD00B292BD122E0FFF77BFF184B1A8890B2002823D0BDE81040FFF7AABEF0B914480178D9B9441C2378124A1370144B1478E7
:4017C0001878844201D2197004E01978012901D912781A70BDE81040FFF76CBD30B908480378012B02D80278074BF2E7002010BD04600040006000400360004060C1FF1F24
:4018000002600040EAC1FF1FECC1FF1F01600040EBC1FF1F30B5012202F10F031801092AC3B23BD01F4903F180440C2004F5C14500FB021428701C496579591825B1247913
:40184000240658BF082000E08020087017490C245818144904FB02110C890132C4F3072404700C891248E4B218180470CC881148E4B218180470CC880F48C4F307241818AD
:401880000470CC880D48E4B2181804700C48D2B21818CB88C3F307210170BDE70949FF220A7030BD78C1FF1F0E6000400C6000400D600040866000408760004084600040DA
:4018C000856000400A600040044B05491A7801EBC2035A6802EBC000C06870476CC1FF1FC8200000F8B53D4B1A78002A74D01878411EC8B2FFF7E8FFC368057A0833002038
:40190000A84269D013F8082C3549364C8E5CA45CA6425DD0895C13F8074C8C4258D1324909788A4254D113F8067C07F07F02561E3401E1B213F8056C2C4C17F0800F4FF015
:401940000C0706F0030607FB024406D001276770BE4214BF0D26072605E000276770012E14BF092605266671214C01260F190C2454433E701D4E33F8047C3219178113F8BA
:40198000067C177113F8057C37550026D6701689184CC6F307260C1926701689164CF6B20C192670D688154CF6B20C192670D688134CC6F307260C192670D688114CF6B2AE
:4019C0000C192670104C0C19D188C1F3072222700130C0B2083393E7F8BD00BF71C1FF1F5EC1FF1FE4C1FF1F0460004078C1FF1F0E6000400C6000400D600040866000409F
:401A000087600040846000408560004008B5064B1878411EC8B2FFF757FF4268137900EBC300406908BD00BF71C1FF1FF8B500210C244C43514D013100232A1909292B559D
:401A4000937002F108045370D370537113819372EED118B14A484B4A037013704A4B1978002900F08A801C78601EC0B2FFF72CFF4268D37903F04001CCB2444B1CB11C78D6
:401A800044F0010102E01A7802F0FE01047A19700122C36800210833A14243D013F8065C05F07F06B24239D1344E0C2707FB0266B6F808E033F8047C1FFA8EFCBC4538BF04
:401AC000378113F8086C2E4FBE5D13F8077CB74224D113F8056C15F0800F284D4FF00C0706F0030607FB025506D001276F70BE4214BF0D26072605E000276F70012E14BF6F
:401B0000092605266E710C2555431C4E13F806EC771987F804E013F8057C77550131C9B20833B9E70132092AB3D1C36800220833A2420DD013F8065C0C2605F07F010F4DC6
:401B400013F8080C06FB015101328872D2B2EEE7FFF75CFF0E4B00221860012307490C2000FB0310C280018901335218092B92B2F4D1BDE8F840FFF74DBEF8BD78C1FF1FEA
:401B80005EC1FF1FE4C1FF1F71C1FF1F6FC1FF1F74C1FF1F124B197801F07F014A1ED0B207281AD80301DAB20E4B0C2000FB0130817841F0010300218370C170437843F028
:401BC000020141700079084B10F0800F01D08D2100E08921D154FFF76DBB0020704700BF0460004078C1FF1F0E60004010B51A4B187800F07F035A1ED2B2072A2AD8174990
:401C00000C2000FB03139C78120104F0FE01997000241349DC70D2B2545C04F07F045454597801F0FD01597019795B7811F0800F0C4905D0012B01D1505407E00D2004E0E3
:401C4000012B01D1082000E009205054BDE81040FFF730BB002010BD0460004078C1FF1F0C6000400E60004010B50C4B0C481C7801784A1ED0B2FFF727FE43681879A042D9
:401C800009D944B9074B084A19780848117001780120197010BD002010BD00BF0460004071C1FF1F5EC1FF1FE4C1FF1F0260004010B57C4B00221A807B4A7C48117811F0B2
:401CC000800F00F08A8001780A2900F22281DFE811F05800200120012001200120010B002001780020017C00714B197801290AD170487149027801EBC20358681223426886
:401D0000684842600FE01878022811D16B4B1878FFF7DAFD4268634842604168CB784268917841EA03230380BDE81040FFF70CBC1A78032A21D1624B00226049087890421B
:401D40000AD80A7882B15D495E4809785E4A007C884208BF134607E018780028F1D01978501C5B18C2B2E8E71978002900F0D18018784C4A10805360D6E7BDE8104000F0D8
:401D8000DDB8117811F0030211D0022A40F0C18044494E4B0A8018784D4A00F07F030C2000FB032398784B4B0022187006E03D49022349480B800078464B18705A704B60E8
:401DC000B2E701221A80454805E001223F481A800278434988185860A6E70378581E0A2800F29780DFE810F02B009500440095000B009500950095000F00950019002F4B5F
:401E0000384918784CE02D4B344A18783649107001200870FFF70AFE77E0FFF725FF002877D02A4C314A24782F4B012114701970FFF758FD2A482E49025D0A5565E0127872
:401E400002F00301012955D009D3022961D11B4B187800285DD1BDE81040FFF7C7BE174A1178012955D11C490B7803F0FD0017E0107800F00302012A3CD009D3022A48D14A
:401E80000E490B78002B44D1BDE81040FFF782BE0A480278012A3CD10F490B7843F00200087032E060C1FF1F0060004001600040036000406CC1FF1FC82000000260004047
:401EC0008E2100000A220000842100000460004078C1FF1F55C1FF1F6FC1FF1F71C1FF1F5EC1FF1F5CC1FF1F70C1FF1F6DC1FF1FE4C1FF1F084802785AB90378074A0848C6
:401F0000D15C007821EA0001D154BDE81040FFF7D1B9002010BD00BF0460004073C1FF1F02600040034B1878010644BF024909780020704700600040016000400F4B18785C
:401F400000F0030101290CD002290DD10C4A0C2110780C4A00F07F0301FB03200830837803E0074B1B7800E0002307490A68D05C032801D1FFF7C6BB002070470060004095
:401F80000460004078C1FF1F74C1FF1F38B50E4D0E4B0024E81A8510AC4205D00B4951F8242090470134F7E700F038F90849094A541AA5100024AC4205D0054B53F824005B
:401FC00080470134F7E738BD2822000028220000282200003022000010B50023934203D0CC5CC4540133F9E710BD82180346934202D003F8011BFAE7704700007022000066
:402000008200000000000000105100402000505100401000C0510040100000000140001000140140000800400140000A004C01400002005001402000014500400252004078
:402040000117014001190140034001400241014002420140024301400347014003480140024C0140015101407E021C3E7C40EE0AEE0A33803640CC30A640A780A640A7809B
:40208000A640A78008080F40C20CAE40AF80EE50AC08AF40000A00FFFF00000000000000000000000000C000003E00000000000000FCFC0000000000000F0F0000000000CC
:4020C0006930132E0014010101000000D0200000010000000A22000001000000E020000001000000E121000002000000022100000100000014210000000000000021000052
:402100000300000001034000030000008203400003000000010000001C210000000000005021000000000000442100000000000000000000010000005C21000001000000FA
:40214000F32100004100000033C2FF1F74C2FF1F41000000F2C1FF1FEEC1FF1F240005010900A1000900A1000900150025FF7508954091020900150025FF75089540810208
:40218000C0C000000A033000300030003100040309042C0343007900700072006500730073002000530065006D00690063006F006E0064007500630074006F007200220301
:4021C000500053006F0043003300200042006F006F0074006C006F0061006400650072000009022900010100800009040000020300000209211101000122240007050103CF
:40220000400001070582034000011201000200000008B4041DB7013001028001F8B500BFF8BC08BC9E46704751000000B9010000F8B500BFF8BC08BC9E4670472D000000F7
:402240005022000008C1FF1F200000005001000000000000FC1F0000002000000000007D00FA0000400000000090D00300000000000000000000000000000000000000003F
:40228000000000000000000000000000000000000000000000000000000000000000000000000000000000000000000000000000000000000000000000000000000000001E
:4022C00000000000000000000000000000000000000000000000000000000000000000000000000000000000000000000000000000000000000000000000000000000000DE
:40230000000000000000000000000000000000000000000000000000000000000000000000000000000000000000000000000000000000000000000000000000000000009D
:40234000000000000000000000000000000000000000000000000000000000000000000000000000000000000000000000000000000000000000000000000000000000005D
:020000040001F9
:40FFC00000000000000000000000000000000000000000000100010000000000000000000000000000000000000000000000000000000000000000000000000000000000FF
:0200000480007A
:4000000000000000000000000000000000000000000000000000000000000000000000000000000000000000000000000000000000000000000000000000000000000000C0
:400040000000000000000000000000000000000000000000000000000000000000000000000000000000000000000000000000000000000000000000000000000000000080
:400080000000000000000000000000000000000000000000000000000000000000000000000000000000000000000000000000000000000000000000000000000000000040
:4000C0000000000000000000000000000000000000000000000000000000000000000000000000000000000000000000000000000000000000000000000000000000000000
:0200000490006A
:040000008000400537
:0200000490105A
:04000000BC90ACAF55
:0200000490303A
:020000005902A3
:0200000490402A
:4000000000000000000000000000000000000000000000000000000000000000000000000000000000000000000000000000000000000000000000000000000000000000C0
:400040000000000000000000000000000000000000000000000000000000000000000000000000000000000000000000000000000000000000000000000000000000000080
:0200000490501A
:0C00000000012E13306900012E1F896BD7
:00000001FF